:100000000C9434000C9451000C9451000C94510049
:100010000C9451000C9451000C9451000C9451001C
:100020000C9451000C9451000C9451000C9451000C
:100030000C9451000C9451000C9451000C945100FC
:100040000C9451000C9451000C9451000C945100EC
:100050000C9451000C9451000C9451000C945100DC
:100060000C9451000C94510011241FBECFEFD8E026
:10007000DEBFCDBF11E0A0E0B1E0E6E6F4E002C0F3
:1000800005900D92AE31B107D9F711E0AEE1B1E0C4
:1000900001C01D92A432B107E1F70E94DA000C946E
:1000A00031020C94000087B1807887B98AB18A7FC9
:1000B0008AB98BB185608BB91092C50083E38093B8
:1000C000C40082E08093C00088E18093C10086E094
:1000D0008093C20080E191E0909321018093200100
:1000E000F89481E08093B10008951F93182F8A300F
:1000F00019F48DE00E9475008091C00085FFFCCF4F
:100100001093C60080E090E01F9108958091C00098
:1001100087FFFCCF8091C60008959C0181E087BBDA
:1001200080EF8093B20091E007C0B89BFECF97BBF1
:100130008093B2002150304021153105B1F7089568
:10014000CF93DF93EC0105C088EE93E00E948D0011
:1001500021972097C9F7DF91CF910895FC0133E0F3
:10016000660F771F3A95E1F76068CA01807893704F
:10017000880F892F881F990B9195682B60834F7783
:10018000418308950F931F938C01FC01808190E0BF
:100190000E94C90180E991E00E948D00F8018181EF
:1001A00090E00E94C90180E991E00E948D001F91BA
:1001B0000F910895EF92FF920F931F93DF93CF93C8
:1001C00000D0CDB7DEB780910601909107019A83E8
:1001D00089830E94530081E060E047E00E94AD0106
:1001E00080E091E00E94D0018E010F5F1F4F4FEF22
:1001F000E42E43E0F42E8091C00087FFFCCF809175
:10020000C6008130C1F7C8016FE070E044E050E003
:100210000E94AE00C8010E94C20081E00E947801E5
:10022000AC01C80160E070E00E94AE00C8010E940D
:10023000C20082E00E947801AC01C80161E070E078
:100240000E94AE00C8010E94C20084E00E947801B2
:10025000AC01C80162E070E00E94AE00C8010E94DB
:10026000C2004A9903C040E050E002C04FEF5FEF88
:10027000C80163E070E00E94AE00C8010E94C200A5
:1002800085E00E947801AC01C80164E070E00E9442
:10029000AE00C8010E94C20086E00E947801AC0155
:1002A000C80165E070E00E94AE00C8010E94C20073
:1002B00083E00E947801AC01C80166E070E00E9412
:1002C000AE00C8010E94C20080E00E947801A70130
:1002D000481B590B57FF03C0509541955F4FC8010C
:1002E00067E070E00E94AE00C8010E94C20083CFA8
:1002F00090917C00907F90937C0090917C008F7017
:10030000892B80937C0080917A00806480937A00AE
:1003100080917A0086FDFCCF2091780030E04091FA
:100320007900942F80E0282B392BC901089528E803
:1003300033E1A901849F9001859F300D949F300D7A
:10034000112440E050E08AE056954795379527956F
:100350008A95D1F7B901CA0108958295880F880F4F
:10036000807CECE7F0E0808380816295660F607EA0
:10037000862B8083EAE7F0E080818460808380813F
:1003800082608083808181608083808180688083B7
:10039000089560912001709121010E940502089545
:1003A0000F931F93CF93DF938C01E0912001F09185
:1003B0002101838181FF21C0C0E0D0E00DC0E09128
:1003C0002001F091210120853185BF01F9010995B6
:1003D000892B11F0CFEFDFEFF80181918F01882396
:1003E00071F7E0912001F0912101208531858AE0AB
:1003F000BF01F9010995892B11F0CFEFDFEFCE0195
:10040000DF91CF911F910F9108950F931F93CF9379
:10041000DF938C01EB018B8181FF1BC082FF0DC03C
:100420002E813F818C819D812817390764F4E881F2
:10043000F9810193F983E88306C0E885F985802F67
:100440000995892B31F48E819F8101969F838E833C
:1004500002C00FEF1FEFC801DF91CF911F910F91E5
:060460000895F894FFCF9F
:100466005374617274000000010204020506030061
:0E047600000000020000000075000000000001
:00000001FF
